{
  "contractName": "log",
  "abi": [
    {
      "inputs": [],
      "name": "count",
      "outputs": [
        {
          "internalType": "int256",
          "name": "",
          "type": "int256"
        }
      ],
      "stateMutability": "view",
      "type": "function",
      "constant": true
    },
    {
      "inputs": [
        {
          "internalType": "uint256",
          "name": "",
          "type": "uint256"
        }
      ],
      "name": "file_name",
      "outputs": [
        {
          "internalType": "string",
          "name": "",
          "type": "string"
        }
      ],
      "stateMutability": "view",
      "type": "function",
      "constant": true
    },
    {
      "inputs": [
        {
          "internalType": "uint256",
          "name": "",
          "type": "uint256"
        }
      ],
      "name": "log_data",
      "outputs": [
        {
          "internalType": "string",
          "name": "",
          "type": "string"
        }
      ],
      "stateMutability": "view",
      "type": "function",
      "constant": true
    },
    {
      "inputs": [
        {
          "internalType": "uint256",
          "name": "",
          "type": "uint256"
        }
      ],
      "name": "time_stamp",
      "outputs": [
        {
          "internalType": "string",
          "name": "",
          "type": "string"
        }
      ],
      "stateMutability": "view",
      "type": "function",
      "constant": true
    },
    {
      "inputs": [
        {
          "internalType": "uint256",
          "name": "",
          "type": "uint256"
        }
      ],
      "name": "user_id",
      "outputs": [
        {
          "internalType": "string",
          "name": "",
          "type": "string"
        }
      ],
      "stateMutability": "view",
      "type": "function",
      "constant": true
    },
    {
      "inputs": [
        {
          "internalType": "string",
          "name": "_log_data",
          "type": "string"
        },
        {
          "internalType": "string",
          "name": "_time_stamp",
          "type": "string"
        },
        {
          "internalType": "string",
          "name": "_uid",
          "type": "string"
        },
        {
          "internalType": "string",
          "name": "_file_name",
          "type": "string"
        }
      ],
      "name": "build",
      "outputs": [],
      "stateMutability": "nonpayable",
      "type": "function"
    },
    {
      "inputs": [
        {
          "internalType": "string",
          "name": "_log_data",
          "type": "string"
        }
      ],
      "name": "setLogData",
      "outputs": [],
      "stateMutability": "nonpayable",
      "type": "function"
    },
    {
      "inputs": [
        {
          "internalType": "string",
          "name": "_time_stamp",
          "type": "string"
        }
      ],
      "name": "setTimeStamp",
      "outputs": [],
      "stateMutability": "nonpayable",
      "type": "function"
    },
    {
      "inputs": [
        {
          "internalType": "string",
          "name": "_uid",
          "type": "string"
        }
      ],
      "name": "setUserId",
      "outputs": [],
      "stateMutability": "nonpayable",
      "type": "function"
    },
    {
      "inputs": [
        {
          "internalType": "string",
          "name": "_file_name",
          "type": "string"
        }
      ],
      "name": "setFileName",
      "outputs": [],
      "stateMutability": "nonpayable",
      "type": "function"
    }
  ],
  "bytecode": "0x6080604052600060045534801561001557600080fd5b50610bb6806100256000396000f3fe608060405234801561001057600080fd5b506004361061009e5760003560e01c8063ddd5787211610066578063ddd5787214610159578063e28cb20e14610175578063ec5cdd0114610191578063fae48f98146101ad578063fdc73cdf146101dd5761009e565b806306661abd146100a35780633b606a7a146100c15780636cd894b1146100dd578063c6b4507f1461010d578063d03f29f61461013d575b600080fd5b6100ab61020d565b6040516100b891906106ba565b60405180910390f35b6100db60048036038101906100d6919061082f565b610213565b005b6100f760048036038101906100f291906108ae565b610252565b6040516101049190610963565b60405180910390f35b610127600480360381019061012291906108ae565b6102fe565b6040516101349190610963565b60405180910390f35b6101576004803603810190610152919061082f565b6103aa565b005b610173600480360381019061016e919061082f565b6103e9565b005b61018f600480360381019061018a919061082f565b610428565b005b6101ab60048036038101906101a69190610985565b610467565b005b6101c760048036038101906101c291906108ae565b6104a6565b6040516101d49190610963565b60405180910390f35b6101f760048036038101906101f291906108ae565b610552565b6040516102049190610963565b60405180910390f35b60045481565b60028190806001815401808255809150506001900390600052602060002001600090919091909150908051906020019061024e9291906105fe565b5050565b6001818154811061026257600080fd5b90600052602060002001600091509050805461027d90610a8b565b80601f01602080910402602001604051908101604052809291908181526020018280546102a990610a8b565b80156102f65780601f106102cb576101008083540402835291602001916102f6565b820191906000526020600020905b8154815290600101906020018083116102d957829003601f168201915b505050505081565b6002818154811061030e57600080fd5b90600052602060002001600091509050805461032990610a8b565b80601f016020809104026020016040519081016040528092919081815260200182805461035590610a8b565b80156103a25780601f10610377576101008083540402835291602001916103a2565b820191906000526020600020905b81548152906001019060200180831161038557829003601f168201915b505050505081565b6003819080600181540180825580915050600190039060005260206000200160009091909190915090805190602001906103e59291906105fe565b5050565b6001819080600181540180825580915050600190039060005260206000200160009091909190915090805190602001906104249291906105fe565b5050565b6000819080600181540180825580915050600190039060005260206000200160009091909190915090805190602001906104639291906105fe565b5050565b61047084610428565b610479836103e9565b61048282610213565b61048b816103aa565b600160045461049a9190610aec565b60048190555050505050565b600381815481106104b657600080fd5b9060005260206000200160009150905080546104d190610a8b565b80601f01602080910402602001604051908101604052809291908181526020018280546104fd90610a8b565b801561054a5780601f1061051f5761010080835404028352916020019161054a565b820191906000526020600020905b81548152906001019060200180831161052d57829003601f168201915b505050505081565b6000818154811061056257600080fd5b90600052602060002001600091509050805461057d90610a8b565b80601f01602080910402602001604051908101604052809291908181526020018280546105a990610a8b565b80156105f65780601f106105cb576101008083540402835291602001916105f6565b820191906000526020600020905b8154815290600101906020018083116105d957829003601f168201915b505050505081565b82805461060a90610a8b565b90600052602060002090601f01602090048101928261062c5760008555610673565b82601f1061064557805160ff1916838001178555610673565b82800160010185558215610673579182015b82811115610672578251825591602001919060010190610657565b5b5090506106809190610684565b5090565b5b8082111561069d576000816000905550600101610685565b5090565b6000819050919050565b6106b4816106a1565b82525050565b60006020820190506106cf60008301846106ab565b92915050565b6000604051905090565b600080fd5b600080fd5b600080fd5b600080fd5b6000601f19601f8301169050919050565b7f4e487b7100000000000000000000000000000000000000000000000000000000600052604160045260246000fd5b61073c826106f3565b810181811067ffffffffffffffff8211171561075b5761075a610704565b5b80604052505050565b600061076e6106d5565b905061077a8282610733565b919050565b600067ffffffffffffffff82111561079a57610799610704565b5b6107a3826106f3565b9050602081019050919050565b82818337600083830152505050565b60006107d26107cd8461077f565b610764565b9050828152602081018484840111156107ee576107ed6106ee565b5b6107f98482856107b0565b509392505050565b600082601f830112610816576108156106e9565b5b81356108268482602086016107bf565b91505092915050565b600060208284031215610845576108446106df565b5b600082013567ffffffffffffffff811115610863576108626106e4565b5b61086f84828501610801565b91505092915050565b6000819050919050565b61088b81610878565b811461089657600080fd5b50565b6000813590506108a881610882565b92915050565b6000602082840312156108c4576108c36106df565b5b60006108d284828501610899565b91505092915050565b600081519050919050565b600082825260208201905092915050565b60005b838110156109155780820151818401526020810190506108fa565b83811115610924576000848401525b50505050565b6000610935826108db565b61093f81856108e6565b935061094f8185602086016108f7565b610958816106f3565b840191505092915050565b6000602082019050818103600083015261097d818461092a565b905092915050565b6000806000806080858703121561099f5761099e6106df565b5b600085013567ffffffffffffffff8111156109bd576109bc6106e4565b5b6109c987828801610801565b945050602085013567ffffffffffffffff8111156109ea576109e96106e4565b5b6109f687828801610801565b935050604085013567ffffffffffffffff811115610a1757610a166106e4565b5b610a2387828801610801565b925050606085013567ffffffffffffffff811115610a4457610a436106e4565b5b610a5087828801610801565b91505092959194509250565b7f4e487b7100000000000000000000000000000000000000000000000000000000600052602260045260246000fd5b60006002820490506001821680610aa357607f821691505b60208210811415610ab757610ab6610a5c565b5b50919050565b7f4e487b7100000000000000000000000000000000000000000000000000000000600052601160045260246000fd5b6000610af7826106a1565b9150610b02836106a1565b9250817f7fffffffffffffffffffffffffffffffffffffffffffffffffffffffffffffff03831360008312151615610b3d57610b3c610abd565b5b817f8000000000000000000000000000000000000000000000000000000000000000038312600083121615610b7557610b74610abd565b5b82820190509291505056fea26469706673582212200dda091a0b025fda4410c0bc360557a618958950de3d446ce4ec605b203b22f164736f6c634300080b0033",
  "immutableReferences": {},
  "source": "// SPDX-License-Identifier: MIT\r\npragma solidity ^0.8.11;\r\n\r\ncontract log {\r\n    string[] public log_data;\r\n    string[] public time_stamp;\r\n    string[] public user_id;\r\n    string[] public file_name;\r\n    int public count = 0;\r\n\r\n\r\n    function build(string memory _log_data,string memory _time_stamp,string memory _uid, string memory _file_name) public {\r\n        setLogData(_log_data);\r\n        setTimeStamp(_time_stamp);\r\n        setUserId(_uid);\r\n        setFileName(_file_name);\r\n        count = count + 1;\r\n    }\r\n\r\n    function setLogData (string memory _log_data) public {\r\n        log_data.push(_log_data);\r\n    }\r\n\r\n    function setTimeStamp(string memory _time_stamp) public {\r\n        time_stamp.push(_time_stamp);\r\n    }\r\n\r\n    function setUserId(string memory _uid) public {\r\n        user_id.push(_uid);\r\n    }\r\n\r\n    function setFileName(string memory _file_name) public {\r\n        file_name.push(_file_name);\r\n    }\r\n\r\n}\r\n",
  "sourcePath": "D:\\Paid_Assignments\\Web_App_BlockChain\\contracts\\log.sol",
  "compiler": {
    "name": "solc",
    "version": "0.8.11+commit.d7f03943.Emscripten.clang"
  },
  "schemaVersion": "3.4.4",
  "updatedAt": "2022-05-20T06:52:49.750Z",
  "networkType": "ethereum",
  "devdoc": {
    "kind": "dev",
    "methods": {},
    "version": 1
  },
  "userdoc": {
    "kind": "user",
    "methods": {},
    "version": 1
  }
}